:020000040800F2
:10000000700600200D020008150200081702000803
:10001000190200081B0200081D0200080000000071
:100020000000000000000000000000001F020008A7
:100030002102000800000000230200082502000839
:1000400027020008270200082702000827020008EC
:1000500027020008270200082702000827020008DC
:1000600027020008270200082702000827020008CC
:1000700027020008270200082702000827020008BC
:1000800027020008270200082702000827020008AC
:10009000270200082702000827020008270200089C
:1000A000270200082702000827020008270200088C
:1000B000270200082702000827020008270200087C
:1000C000270200082702000827020008270200086C
:1000D000270200082702000827020008270200085C
:1000E000270200082702000827020008270200084C
:1000F000270200082702000827020008270200083C
:10010000270200082702000827020008270200082B
:10011000270200082702000827020008270200081B
:10012000270200082702000827020008270200080B
:1001300027020008270200082702000827020008FB
:1001400027020008270200082702000827020008EB
:1001500027020008270200082702000827020008DB
:1001600027020008270200082702000827020008CB
:1001700027020008270200082702000800000000EC
:10018000270200082702000800F002F800F02EF80D
:100190000AA090E8000C82448344AAF10107DA45E2
:1001A00001D100F023F8AFF2090EBAE80F0013F006
:1001B000010F18BFFB1A43F001031847500C000051
:1001C000600C00000023002400250026103A28BF00
:1001D00078C1FBD8520728BF30C148BF0B607047B9
:1001E0001FB500F006FE1FBD10B510BD00F031F8C0
:1001F0001146FFF7F5FF00F0ADFD00F04FF803B436
:10020000FFF7F2FF03BC00F057F8000009488047F1
:1002100009480047FEE7FEE7FEE7FEE7FEE7FEE7E8
:10022000FEE7FEE7FEE7FEE704480549054A064B00
:1002300070470000F10C00088901000870000020E0
:100240007006002070020020700200207047704786
:100250007047754600F02CF8AE46050069465346D7
:1002600020F00700854618B020B5FFF7DDFFBDE898
:1002700020404FF000064FF000074FF000084FF00D
:10028000000BAC46ACE8C009ACE8C009ACE8C0095A
:10029000ACE8C00921F007018D46704710B504464F
:1002A000AFF300802046BDE81040FFF7A8BF000074
:1002B000004870470000002001491820ABBEFEE74F
:1002C000260002007047000080B582B014200DF1B6
:1002D0000701012200F060F99DF80700800750B97E
:1002E000FFE714200090002100F0D6F900980121CA
:1002F00000F0D2F9FFE702B080BD000080B584B005
:10030000039000208DF809008DF805000D200DF1F7
:100310000501012200F01CFB03999320087003994A
:1003200020204870039B69460DF1060008600C20F0
:100330000222194600F0D4F98DF80B009DF80B004D
:1003400038BBFFE700208DF80A00FFE79DF80A00A0
:10035000032810DCFFE703989DF80A10415C9DF824
:10036000090048408DF80900FFE79DF80A000130B8
:100370008DF80A00EAE79DF8090003999DF80A2024
:10038000895C884204D0FFE702208DF80B00FFE76C
:10039000FFE79DF80B0004B080BD000080B588B079
:1003A00007908DF81B1005920520022100F050F9EE
:1003B0000A20072100F070F900208DF81300FFE7F4
:1003C0009DF813009DF81B10884213DAFFE7079889
:1003D0009DF81310405C8DF8110009200DF11101FA
:1003E000012200F0B5FAFFE79DF8130001308DF807
:1003F0001300E5E703208DF8100004A90122104640
:1004000000F0A6FAFF208DF81300FFE705200DF19C
:100410001201012200F0C0F89DF8130001388DF898
:100420001300FFE79DF813100020029049B1FFE789
:100430009DF8120000F00401012080EA9100029072
:10044000FFE70298C0070028E0D1FFE722200DF166
:100450000F010122019200F09FF8019A21200DF175
:100460000E0100F099F89DF80F00059908709DF8AD
:100470000E000599487008B080BD000080B582B0BC
:1004800001900199262000F0A5F88DF803009DF851
:10049000030030B9FFE70198FFF730FF8DF8030044
:1004A000FFE700F005F89DF8030002B080BD0000F2
:1004B00080B584B050208DF80A0000208DF80B0024
:1004C0000DF10A000190821C0221FFF767FF019BDA
:1004D00069460DF10E0008600C200422194600F058
:1004E000FFF804B080BD000080B584B08D208DF889
:1004F0000F003E208DF80E0030208DF80D000020FA
:100500008DF80C0070208DF80B0040208DF80A004B
:100510003D208DF80900FF208DF808008DF80700B8
:1005200000F088F82A200DF10F010122009200F05E
:100530000FFA009A2B200DF10E0100F009FA009A33
:100540002D200DF10D0100F003FA009A2C2003A9D3
:1005500000F0FEF9009A26200DF10B0100F0F8F9E9
:10056000009A15200DF10A0100F0F2F9009A11200D
:100570000DF1090100F0ECF9009A022002A900F047
:10058000E7F9009A03200DF1070100F0E1F9FFF708
:100590009BFE04B080BD000080B584B08DF80F00D4
:1005A00002918DF8072000F0F9F99DF80F108020D6
:1005B00040EA41008DF80F009DF80F0000F0F6F9B9
:1005C00002989DF8071000F055FA00F0DFF904B02A
:1005D00080BD000080B586B08DF81700049107201B
:1005E0008DF80B000D200DF10B010122019200F09E
:1005F000AFF9019A9DF8170004990870049B6946A9
:1006000003A808600C20194600F06AF88DF80F0066
:100610009DF80F0028B9FFE7BDF80C00102804D0A2
:10062000FFE702208DF80F00FFE79DF80F0006B0EE
:1006300080BD000080B582B00F208DF807000DF15D
:1006400007010122104600F083F902B080BD0000CE
:1006500080B584B08DF80F008DF80E1000208DF855
:100660000D009DF80F000DF10D0101910122029284
:10067000FFF792FF0199029A9DF80E0002FA00F32B
:100680009DF80D0098438DF80D009DF80F0000F0C7
:100690005FF904B080BD000080B584B08DF80F0014
:1006A0008DF80E1000208DF80D009DF80F000DF153
:1006B0000D01019101220292FFF76EFF0199029A4A
:1006C0009DF80E0002FA00F39DF80D0018438DF816
:1006D0000D009DF80F0000F03BF904B080BD000054
:1006E00080B58EB0DDF840C08DF837000C918DF8E4
:1006F0002F200A9302208DF8270000208DF8260075
:100700008DF825009DF83700014606910C280BD086
:10071000FFE706980E280ED1FFE712208DF826007D
:1007200010208DF8250007E077208DF82600302076
:100730008DF8250000E0FFE79DF8260040F08000DE
:100740008DF8210002200DF121010122049200F018
:10075000FFF8042007210391FFF77AFF03990A208D
:10076000FFF79AFF049A002005908DF8200008A951
:10077000104600F0EDF80598ADF82200FFE7BDF84F
:1007800022009DF82F10884213DAFFE70C98BDF87D
:100790002210405C8DF81F0009200DF11F0101227D
:1007A00000F0D6F8FFE7BDF822000130ADF82200D6
:1007B000E5E79DF837008DF8200008A901221046D2
:1007C00000F0C6F89DF837000C2805D1FFE70D2092
:1007D0000721FFF761FFFFE74FF4FA60ADF8220051
:1007E00000208DF81E00FFE704200DF11E010122FC
:1007F000FFF7D2FEBDF822000138ADF82200FFE776
:10080000BDF822100020029089B1FFE79DF81E106C
:100810000020C907029051B9FFE79DF81E009DF81E
:1008200025100840B0FA80F040090290FFE70298D6
:10083000C0070028D8D1FFE70D200721FFF708FFE8
:10084000BDF8220000287ED0FFE700208DF81D00B3
:1008500006200DF11D010122FFF79EFE9DF81D00EF
:1008600010F01B0F6AD1FFE700208DF827009DF8DC
:100870001E009DF826100840C00720B1FFE70120A8
:100880008DF82700FFE79DF837000C2855D1FFE7CA
:100890000A200DF11E0101220192FFF77DFE019A4F
:1008A00000208DF81C000C2007A9FFF775FE9DF8AD
:1008B0001C0000F007008DF824009DF8240050B1C2
:1008C000FFE79DF81E109DF8240000EBC1000838DA
:1008D0001099088005E09DF81E00C000109908805E
:1008E000FFE79DF81E0020B9FFE701208DF81E00EC
:1008F000FFE79DF81E00112804DBFFE710208DF8AC
:100900001E00FFE70020ADF82200FFE7BDF822003F
:100910009DF81E1088420FDAFFE70A98BDF82210F2
:10092000014409200122FFF737FEFFE7BDF822004E
:100930000130ADF82200E9E7FFE703E002208DF87F
:100940002700FFE7FFE79DF827000EB080BD0000FD
:1009500080B584B08DF80F0002918DF8072000F06B
:100960001DF89DF80F107E2000EA41008DF80F0061
:100970009DF80F0000F01AF802989DF8071000F09B
:10098000DFF800F003F804B080BD00001821C4F2C5
:100990000201086840F01000086070471821C4F296
:1009A0000201086840F480100860704782B08DF83A
:1009B0000700FFE743F20800C4F201000068800767
:1009C000002801D4FFE7F5E79DF8070043F20C018A
:1009D000C4F201010860FFE743F20800C4F201001D
:1009E00000688007002801D4FFE7F5E7FFE743F23E
:1009F0000800C4F2010000680006002801D5FFE7E6
:100A0000F5E743F20C00C4F201000068009043F2E5
:100A10000800C4F201000068009002B070470000B6
:100A200043F20001C4F20101086840F04000086090
:100A30007047000043F63001C4F20201086840F03C
:100A4000010008600021C4F20201086840F4294056
:100A500008600821C4F20201086840F47F40086081
:100A60002021C4F2020108680022C5F2505210434E
:100A70000860704782B001900091FFE7009840B392
:100A8000FFE7FFE743F20800C4F201000068000638
:100A9000002801D5FFE7F5E743F20C01C4F201019C
:100AA00000200860FFE743F20800C4F2010000687C
:100AB000C00708B9FFE7F6E743F20C00C4F20100F3
:100AC000006801994A1C0192087000980138009052
:100AD000D4E702B07047000043F64401C4F20201BB
:100AE000086840F48050086043F20001C4F201013C
:100AF000086820F001000860086820F00200086023
:100B0000086840F004000860086840F018000860B9
:100B1000086820F080000860086840F440700860B1
:100B2000086820F480600860086820F400600860AD
:100B300043F20401C4F20101002008607047000084
:100B400080B584B00390029100200190FFE70198E6
:100B5000029988423DDAFFE7FFF720FFFFE743F203
:100B60000800C4F2010000688007002801D4FFE7F4
:100B7000F5E703980199405C43F20C01C4F20101CE
:100B80000860019801300190FFE743F20800C4F2C9
:100B9000010000688007002801D4FFE7F5E7FFE7C0
:100BA00043F20800C4F2010000680006002801D5E5
:100BB000FFE7F5E743F20C00C4F201000068009083
:100BC00043F20800C4F2010000680090FFF7DEFE67
:100BD000BDE704B080BD000082B043F60001C4F25E
:100BE0000201086840F480300860FFE743F6000027
:100BF000C4F2020000688003002801D4FFE7F5E793
:100C000043F64001C4F20201086840F080500860D9
:100C100047F20001C4F20001086840F44040086057
:100C200043F60041C4F202010091086840F40070EC
:100C30000860086840F480600860086840F48070CC
:100C40000860086840F00500086043F60801C4F237
:100C5000020108684FF60F7210400860086840F4FF
:100C6000A0500860086840F40040086043F60401A2
:100C7000C4F20201019108686FF31100086008686E
:100C800040F004000860086840F4285008600868D4
:100C900020F440300860086840F48000086043F6A3
:100CA0000001C4F20201086840F080700860FFE7AC
:100CB00043F60000C4F2020000688001002801D45D
:100CC000FFE7F5E743F60801C4F20201086840F0C7
:100CD00002000860FFE743F60800C4F20200006863
:100CE00000F00C00082801D0FFE7F4E702B07047DD
:100CF0004EF68851CEF20001086840F4700008609A
:100D00007047000043F64001C4F20201086840F059
:100D10001000086041F22801C4F20001532008606D
:100D200041F22C01C4F200014FF6FF70086041F25D
:100D30000001C4F20001086840F001000860FFE70C
:100D400041F21000C4F200000068C00708B9FFE7D4
:100D5000F6E7704780B582B000200190FFF73CFFB6
:100D6000FFF7D0FFFFF766FEFFF7B6FEFFF758FE6E
:100D7000FFF70CFEFFF7B8FBFFF7A6FA0021C4F25D
:100D80000201086840F4802008600821C4F20201D2
:100D9000086840F440200860FFE740F26000C2F2BB
:100DA0000000FFF76BFB18BBFFE740F26000C2F2E8
:100DB0000000017840F26502C2F200021170417831
:100DC00040F26602C2F200021170817840F26702BE
:100DD000C2F200021170C17840F26802C2F2000251
:100DE0001170007940F26901C2F200010870FFE75A
:100DF000D3E7F1EE100A4FF6FF71C0F2C03120EADE
:100E0000010040F04070E1EE100A70471C0E00082F
:0C0E10000000002070060000C401000873
:040000050800020DE0
:00000001FF
