:020000040800F2
:10000000780600206D0100087501000877010008DE
:10001000790100087B0100087D0100080000000054
:100020000000000000000000000000007F01000848
:10003000810100080000000083010008B50C0008E1
:100040008701000887010008870100088701000870
:100050008701000887010008870100088701000860
:100060008701000887010008870100088701000850
:100070008701000887010008870100088701000840
:100080008701000887010008870100088701000830
:100090008701000887010008870100088701000820
:1000A0008701000887010008870100088701000810
:1000B0008701000887010008870100088701000800
:1000C00087010008870100088701000887010008F0
:1000D00087010008870100088701000887010008E0
:1000E00087010008870100088701000800F002F876
:1000F00000F02CF80AA090E8000C82448344AAF196
:100100000107DA4501D100F021F8AFF2090EBAE893
:100110000F0013F0010F18BFFB1A43F0010318473B
:10012000080D0000180D0000002300240025002603
:10013000103A28BF78C1FBD8520728BF30C148BF4A
:100140000B6070471FB51FBD10B510BD00F031F832
:100150001146FFF7F7FF00F023FE00F04FF803B45D
:10016000FFF7F2FF03BC00F057F800000948804792
:1001700009480047FEE7FEE7FEE7FEE7FEE7FEE789
:10018000FEE7FEE7FEE7FEE704480549054A064BA1
:1001900070470000C50C0008ED0000087800002042
:1001A000780600207802002078020020704770470F
:1001B0007047754600F02CF8AE4605006946534678
:1001C00020F00700854618B020B5FFF7DDFFBDE839
:1001D00020404FF000064FF000074FF000084FF0AE
:1001E000000BAC46ACE8C009ACE8C009ACE8C009FB
:1001F000ACE8C00921F007018D46704710B50446F0
:10020000AFF300802046BDE81040FFF7A8BF000014
:10021000004870470000002001491820ABBEFEE7EF
:10022000260002007047000080B582B014200DF156
:100230000701012200F060F99DF80700800750B91E
:10024000FFE714200090002100F0D6F9009801216A
:1002500000F0D2F9FFE702B080BD000080B584B0A5
:10026000039000208DF809008DF805000D200DF198
:100270000501012200F01CFB0399932008700399EB
:1002800020204870039B69460DF1060008600C2091
:100290000222194600F0D4F98DF80B009DF80B00EE
:1002A00038BBFFE700208DF80A00FFE79DF80A0041
:1002B000032810DCFFE703989DF80A10415C9DF8C5
:1002C000090048408DF80900FFE79DF80A00013059
:1002D0008DF80A00EAE79DF8090003999DF80A20C5
:1002E000895C884204D0FFE702208DF80B00FFE70D
:1002F000FFE79DF80B0004B080BD000080B588B01A
:1003000007908DF81B1005920520022100F050F98E
:100310000A20072100F070F900208DF81300FFE794
:100320009DF813009DF81B10884213DAFFE7079829
:100330009DF81310405C8DF8110009200DF111019A
:10034000012200F0B5FAFFE79DF8130001308DF8A7
:100350001300E5E703208DF8100004A901221046E0
:1003600000F0A6FAFF208DF81300FFE705200DF13D
:100370001201012200F0C0F89DF8130001388DF839
:100380001300FFE79DF813100020029049B1FFE72A
:100390009DF8120000F00401012080EA9100029013
:1003A000FFE70298C0070028E0D1FFE722200DF107
:1003B0000F010122019200F09FF8019A21200DF116
:1003C0000E0100F099F89DF80F00059908709DF84E
:1003D0000E000599487008B080BD000080B582B05D
:1003E00001900199262000F0A5F88DF803009DF8F2
:1003F000030030B9FFE70198FFF730FF8DF80300E5
:10040000FFE700F005F89DF8030002B080BD000092
:1004100080B584B050208DF80A0000208DF80B00C4
:100420000DF10A000190821C0221FFF767FF019B7A
:1004300069460DF10E0008600C200422194600F0F8
:10044000FFF804B080BD000080B584B08D208DF829
:100450000F003E208DF80E0030208DF80D0000209A
:100460008DF80C0070208DF80B0040208DF80A00EC
:100470003D208DF80900FF208DF808008DF8070059
:1004800000F088F82A200DF10F010122009200F0FF
:100490000FFA009A2B200DF10E0100F009FA009AD4
:1004A0002D200DF10D0100F003FA009A2C2003A974
:1004B00000F0FEF9009A26200DF10B0100F0F8F98A
:1004C000009A15200DF10A0100F0F2F9009A1120AE
:1004D0000DF1090100F0ECF9009A022002A900F0E8
:1004E000E7F9009A03200DF1070100F0E1F9FFF7A9
:1004F0009BFE04B080BD000080B584B08DF80F0075
:1005000002918DF8072000F025FA9DF80F10802049
:1005100040EA41008DF80F009DF80F0000F0D0FA7E
:1005200002989DF8071000F01FFA00F009FA04B0D5
:1005300080BD000080B586B08DF8170004910720BB
:100540008DF80B000D200DF10B010122019200F03E
:10055000AFF9019A9DF8170004990870049B694649
:1005600003A808600C20194600F06AF88DF80F0007
:100570009DF80F0028B9FFE7BDF80C00102804D043
:10058000FFE702208DF80F00FFE79DF80F0006B08F
:1005900080BD000080B582B00F208DF807000DF1FE
:1005A00007010122104600F083F902B080BD00006F
:1005B00080B584B08DF80F008DF80E1000208DF8F6
:1005C0000D009DF80F000DF10D0101910122029225
:1005D000FFF792FF0199029A9DF80E0002FA00F3CC
:1005E0009DF80D0098438DF80D009DF80F0000F068
:1005F0005FF904B080BD000080B584B08DF80F00B5
:100600008DF80E1000208DF80D009DF80F000DF1F3
:100610000D01019101220292FFF76EFF0199029AEA
:100620009DF80E0002FA00F39DF80D0018438DF8B6
:100630000D009DF80F0000F03BF904B080BD0000F4
:1006400080B58EB0DDF840C08DF837000C918DF884
:100650002F200A9302208DF8270000208DF8260015
:100660008DF825009DF83700014606910C280BD027
:10067000FFE706980E280ED1FFE712208DF826001E
:1006800010208DF8250007E077208DF82600302017
:100690008DF8250000E0FFE79DF8260040F080007F
:1006A0008DF8210002200DF121010122049200F0B9
:1006B000FFF8042007210391FFF77AFF03990A202E
:1006C000FFF79AFF049A002005908DF8200008A9F2
:1006D000104600F0EDF80598ADF82200FFE7BDF8F0
:1006E00022009DF82F10884213DAFFE70C98BDF81E
:1006F0002210405C8DF81F0009200DF11F0101221E
:1007000000F0D6F8FFE7BDF822000130ADF8220076
:10071000E5E79DF837008DF8200008A90122104672
:1007200000F0C6F89DF837000C2805D1FFE70D2032
:100730000721FFF761FFFFE74FF4FA60ADF82200F1
:1007400000208DF81E00FFE704200DF11E0101229C
:10075000FFF7D2FEBDF822000138ADF82200FFE716
:10076000BDF822100020029089B1FFE79DF81E100D
:100770000020C907029051B9FFE79DF81E009DF8BF
:1007800025100840B0FA80F040090290FFE7029877
:10079000C0070028D8D1FFE70D200721FFF708FF89
:1007A000BDF8220000287ED0FFE700208DF81D0054
:1007B00006200DF11D010122FFF79EFE9DF81D0090
:1007C00010F01B0F6AD1FFE700208DF827009DF87D
:1007D0001E009DF826100840C00720B1FFE7012049
:1007E0008DF82700FFE79DF837000C2855D1FFE76B
:1007F0000A200DF11E0101220192FFF77DFE019AF0
:1008000000208DF81C000C2007A9FFF775FE9DF84D
:100810001C0000F007008DF824009DF8240050B162
:10082000FFE79DF81E109DF8240000EBC10008387A
:100830001099088005E09DF81E00C00010990880FE
:10084000FFE79DF81E0020B9FFE701208DF81E008C
:10085000FFE79DF81E00112804DBFFE710208DF84C
:100860001E00FFE70020ADF82200FFE7BDF82200E0
:100870009DF81E1088420FDAFFE70A98BDF8221093
:10088000014409200122FFF737FEFFE7BDF82200EF
:100890000130ADF82200E9E7FFE703E002208DF820
:1008A0002700FFE7FFE79DF827000EB080BD00009E
:1008B00080B584B08DF80F0002918DF8072000F00C
:1008C00049F89DF80F107E2000EA41008DF80F00D6
:1008D0009DF80F0000F0F4F802989DF8071000F062
:1008E000A9F800F02DF804B080BD000043F200012B
:1008F000C4F20101088840F0400008807047000001
:1009000041F21801C4F20201086840F004000860D6
:1009100040F60001C4F2010100200860086840F4BC
:1009200030000860086840F030400860086840F017
:1009300080600860086840F440300860704700003C
:1009400040F61001C4F20101086840F01000086090
:100950007047000040F61001C4F20101086840F43D
:10096000801008607047000082B001900091FFE79E
:10097000009840B3FFE7FFE743F20800C4F201002C
:1009800000880006002801D5FFE7F5E743F20C01D7
:10099000C4F2010100200880FFE743F20800C4F21E
:1009A00001000088C00708B9FFE7F6E743F20C0032
:1009B000C4F20100008801994A1C01920870009855
:1009C00001380090D4E702B07047000041F21801EE
:1009D000C4F20201086840F48050086043F200014C
:1009E000C4F20101088820F001000880088820F086
:1009F00002000880088840F004000880088840F061
:100A000020000880088820F080000880088840F4D2
:100A100040700880088820F480600880088820F4EE
:100A20000060088043F20401C4F201010020088044
:100A30007047000084B00390029100200190FFE70E
:100A400001980299884217DAFFE7FFE743F20800AE
:100A5000C4F2010000888007002801D4FFE7F5E711
:100A600003980199405C43F20C01C4F20101088033
:100A7000019801300190E3E7FFE743F20800C4F278
:100A8000010000888007002801D4FFE7F5E7FFE7B1
:100A900043F20800C4F2010000880006002801D5D6
:100AA000FFE7F5E743F20C00C4F201000088009074
:100AB00043F20800C4F201000088009004B07047BF
:100AC00082B08DF80700FFE743F20800C4F201008E
:100AD00000888007002801D4FFE7F5E79DF80700AC
:100AE00043F20C01C4F201010880FFE743F2080061
:100AF000C4F2010000888007002801D4FFE7F5E771
:100B0000FFE743F20800C4F2010000880006002855
:100B100001D5FFE7F5E743F20C00C4F201000088BD
:100B2000009043F20800C4F201000088009002B077
:100B30007047000080B500F001F880BD84B000204F
:100B40000390029041F20001C4F20201086840F4EF
:100B500080300860FFE741F20000C4F20200006844
:100B600000F400300290039801300390FFE70299EF
:100B70000020019039B9FFE70398B0F5A06018BFD5
:100B800001200190FFE70198C0070028E3D1FFE7AB
:100B900041F20000C4F2020000688003002803D57F
:100BA000FFE70120029002E000200290FFE7029898
:100BB000012851D1FFE742F20001C4F202010868A6
:100BC00040F010000860086820F00700086008681E
:100BD00040F00200086041F20401C4F202010091F9
:100BE0000868086008680860086840F48060086069
:100BF000086820F47C100860086840F4E810086079
:100C000041F20001C4F20201086840F080700860FF
:100C1000FFE741F20000C4F20200006880010028F2
:100C200001D4FFE7F5E741F20401C4F202010868CC
:100C300020F003000860086840F002000860FFE749
:100C400041F20400C4F20200006800F00C00082821
:100C500001D0FFE7F4E700E0FFE704B070470000D1
:100C600080B582B0009000980138B0F1807F03D346
:100C7000FFE70120019019E0009801384EF21401BD
:100C8000CEF2000108604FF0FF300F2100F04EF867
:100C90004EF21801CEF20001002008604EF2100260
:100CA000CEF20002072111600190FFE7019802B027
:100CB00080BD000040F26801C2F200010868013006
:100CC0000860704780B541F20002C4F20202106869
:100CD00040F00100106041F20401C4F20201086812
:100CE0000023CFF6FF031840086010684FF6FF732B
:100CF000CFF6F66318401060106820F48020106072
:100D0000086820F4FE00086041F20801C4F2020104
:100D10004FF41F000860FFF70DFF4EF60851CEF2AA
:100D200000014FF00060086080BD000082B08DF8C7
:100D3000070000919DF9070000280AD4FFE70098FA
:100D400000019DF907104EF20042CEF200028854D5
:100D50000BE0009800019DF8071001F00F014EF61E
:100D60001452CEF200028854FFE702B07047000030
:100D700082B0019040F26800C2F20000006800906A
:100D8000FFE740F26800C2F2000000680099401AD4
:100D90000199884201D2FFE7F3E702B070470000F3
:100DA00080B582B00020019042F22830FFF758FF52
:100DB000FFF7A6FDFFF70AFEFFF7C2FDFFF796FD5E
:100DC000FFF742FBFFF730FAFFE740F26000C2F2A4
:100DD0000000FFF703FB30BBFFE740F26000C2F208
:100DE0000000017840F26C02C2F2000211704178FA
:100DF00040F26D02C2F200021170817840F26E0280
:100E0000C2F200021170C17840F26F02C2F2000219
:100E10001170007940F27001C2F200010870642084
:100E2000FFF7A6FFFFE7D0E7380E0008000000201C
:080E300078060000280100080B
:040000050800016D81
:00000001FF
